S0130000504F5254204472697665722E7372656340
S11300000C942A000C9435040C9447000C9447007B
S11300100C9447000C9447000C9447000C94470040
S11300200C9447000C9447000C9447000C948F04E4
S11300300C9447000C9447000C9447000C94470020
S11300400C945C040C9447000C9447000C944700F7
S11300500C94470011241FBECFE5D8E0DEBFCDBF0E
S113006010E0A0E6B0E0ECE2FBE002C005900D92E7
S1130070A63AB107D9F720E0A6EAB0E001C01D9284
S1130080A73BB207E1F70E9483000C9494050C94FB
S113009000008091A6008823A9F10E94A403809106
S11300A0A60081508093A60061E080E00E9489034D
S11300B089E890E00E94E8028BE890E00E94E80260
S11300C061E081E00E9489036091A70070E080E014
S11300D090E00E9404038AE30E948A026091A600D1
S11300E070E080E090E00E9404032FEF83ED90E342
S11300F0215080409040E1F700C000008091A600AC
S11301008111CBCF0895CF93DF93CDB7DEB7689736
S11301100FB6F894DEBF0FBECDBF0E94D0040E947C
S11301206E020E94D9018BE0EEE8F0E0DE01119648
S113013001900D928A95E1F78DE0E9E9F0E0DE01A6
S11301401C9601900D928A95E1F7CE0101960E94CA
S1130150E8022FEF87EA91E6215080409040E1F7D2
S113016000C000000E94A4036091A70070E080E03A
S113017090E00E94040360E070E0CB010E9404035D
S11301808AE30E948A026091A60070E080E090E019
S11301900E94040360E070E0CB010E9404031CE3AE
S11301A00E94DD01082F0E94EA01F82E0E94F70147
S11301B0E82E0E94030280938800002309F4BEC045
S11301C0FF2009F4E4C0EE2009F4E7C08FC00E94C8
S11301D0A4038091A6008F5F8093A60061E080E075
S11301E00E94890389E890E00E94E8028BE890E08D
S11301F00E94E80261E081E00E9489036091A70007
S113020070E080E090E00E9404038AE30E948A0286
S11302106091A60070E080E090E00E94040366C054
S113022091112EC081508093A7001093A6000E94C4
S1130230A40361E080E00E94890389E890E00E94C1
S1130240E8028BE890E00E94E80261E081E00E940D
S113025089036091A70070E080E090E00E940403AD
S11302608AE30E948A026091A60070E080E090E038
S11302700E9404030E9449008091A7009091A60067
S11302808111CECF911132C00E94A40361E080E0BD
S11302900E94890389E890E00E94E8028BE890E0DC
S11302A00E94E80261E081E00E94890360E070E05E
S11302B0CB010E9404038AE30E948A0260E070E09A
S11302C0CB010E940403AD9AA89AA99AAA9A2FEF87
S11302D081EE94E0215080409040E1F700C000009E
S11302E00E94A403CE010C960E94E802809188002B
S11302F0811156CF0E94A40361E080E00E9489032B
S113030089E890E00E94E8028BE890E00E94E8020D
S113031061E081E00E94890360E070E0CB010E940B
S113032004038AE30E948A0260E070E0CB010E9429
S11303300403AD98A898A998AA9832CF0E94A40360
S11303408091A7008F5F8093A70061E080E00E9406
S1130350890389E890E00E94E8028BE890E00E941B
S1130360E80261E081E00E9489036091A70070E0E7
S113037080E090E00E9404038AE30E948A02609174
S1130380A60070E080E090E00E940403AFCF80916B
S1130390A6008C3308F0AACF1ACF2FEF83ED90E399
S11303A0215080409040E1F700C000000E944900C5
S11303B063CF8A988B988C98089580B382FB8827A2
S11303C080F9829BFECFEFE3FCE93197F1F700C09F
S11303D00000089580B383FB882780F9839BFECFB8
S11303E0EFE3FCE93197F1F700C00000089580B312
S11303F082958170849BFECFEFE3FCE93197F1F79E
S113040000C00000089580B385FB882780F9859B90
S1130410FECFEFE3FCE93197F1F700C00000089547
S1130420CF93C82F60E081E00E94AE0360E082E0D9
S11304300E94AE03C4FB662760F983E00E94AE030A
S1130440C5FB662760F984E00E94AE03C6FB6627FD
S113045060F985E00E94AE036C2F661F6627661F55
S113046086E00E94AE0361E082E00E94AE038FE961
S11304709FE00197F1F700C0000060E082E00E9475
S1130480AE036C2F617083E00E94AE03C1FB66274C
S113049060F984E00E94AE03C2FB662760F985E040
S11304A00E94AE03C3FB662760F986E00E94AE0398
S11304B061E082E00E94AE038FE99FE00197F1F7CB
S11304C000C0000060E082E00E94AE038FE19EE481
S11304D00197F1F700C00000CF91089583E30E94D3
S11304E0100282E30E94100288E20E94100281E05E
S11304F00E94100286E00E9410028CE00E9410020A
S113050082E00E9410028FE19EE40197F1F700C09F
S113051000000895CF93C82F61E081E00E94AE03EC
S113052060E082E00E94AE03C4FB662760F983E0CA
S11305300E94AE03C5FB662760F984E00E94AE0307
S1130540C6FB662760F985E00E94AE036C2F661F28
S11305506627661F86E00E94AE0361E082E00E9487
S1130560AE038FE99FE00197F1F700C0000060E05F
S113057082E00E94AE036C2F617083E00E94AE03A0
S1130580C1FB662760F984E00E94AE03C2FB6627C4
S113059060F985E00E94AE03C3FB662760F986E03C
S11305A00E94AE0361E082E00E94AE038FE99FE007
S11305B00197F1F700C0000060E082E00E94AE0302
S11305C08FE19EE40197F1F700C00000CF910895F8
S11305D00F931F93CF93FC018081882359F08F01DF
S11305E0C0E00E948A02CF5FF801EC0FF11D808108
S11305F08111F7CF8FE19EE40197F1F700C000006D
S1130600CF911F910F9108958F929F92AF92BF92B5
S1130610CF92DF92EF92FF920F931F938B019C0175
S1130620611571058105910521F480E30E948A0218
S11306305FC0992334F016161706180619062CF015
S113064057C08DE20E948A0253C061E070E080E0EE
S113065090E00F2EFAE08F2E912CA12CB12CF02DCE
S1130660DC01CB01880F991FAA1FBB1F6C017D0100
S1130670CC0CDD1CEE1CFF1CCC0CDD1CEE1CFF1C8A
S1130680C80ED91EEA1EFB1EC901B801A5019401BA
S11306900E9453056C0D7D1D8E1D9F1D022F132F6F
S11306A0242F352F1016110612061306CCF26230D1
S11306B0710581059105E4F00F2EFAE08F2E912C3F
S11306C0A12CB12CF02DA50194010E945305E22E1A
S11306D0F32E042F152F80E3860F0E948A026E2DBD
S11306E07F2D802F912F62307105810591055CF774
S11306F08FE19EE40197F1F700C000001F910F9174
S1130700FF90EF90DF90CF90BF90AF909F908F902D
S11307100895CF93DF9300D0CDB7DEB790E89983E7
S113072090EC9A83FE01E80FF11D8181860F0E94EF
S113073010028FE19EE40197F1F700C000000F90D2
S11307400F90DF91CF91089581E00E9410028FE114
S11307509EE40197F1F700C000000895982F969544
S1130760969596958770662309F43FC0613009F029
S11307707BC0913099F028F09230E9F0933041F148
S113078008954BB321E030E0B90102C0660F771F32
S11307908A95E2F7CB01842B8BBB089548B321E003
S11307A030E0B90102C0660F771F8A95E2F7CB01EA
S11307B0842B88BB089545B321E030E0B90102C021
S11307C0660F771F8A95E2F7CB01842B85BB0895CA
S11307D042B321E030E0B90102C0660F771F8A9569
S11307E0E2F7CB01842B82BB08959130A1F028F06D
S11307F09230F9F0933059F108954BB321E030E091
S1130800B90102C0660F771F8A95E2F7CB01809584
S113081084238BBB089548B321E030E0B90102C0C2
S1130820660F771F8A95E2F7CB018095842388BBF6
S1130830089545B321E030E0B90102C0660F771F87
S11308408A95E2F7CB018095842385BB089542B352
S113085021E030E0B90102C0660F771F8A95E2F704
S1130860CB018095842382BB08951F920F920FB60B
S11308700F9211242F933F934F935F936F937F9322
S11308808F939F93AF93BF93EF93FF93E091B10046
S1130890F091B2000995FF91EF91BF91AF919F91B3
S11308A08F917F916F915F914F913F912F910F9015
S11308B00FBE0F901F9018951F920F920FB60F92B4
S11308C011242F933F934F935F938F939F93AF93F1
S11308D0BF9344B155B128E833E1429FC001439F1F
S11308E0900D529F900D1124892F992786958695F6
S11308F0A0E0B0E08093B3009093B400A093B5005F
S1130900B093B600BF91AF919F918F915F914F913A
S11309103F912F910F900FBE0F901F9018951F922B
S11309200F920FB60F9211242F933F934F935F931F
S11309306F937F938F939F93AF93BF93EF93FF93A3
S11309408091B0008F5F8093B00090E0A0E0B0E0B1
S11309504091AC005091AD006091AE007091AF0039
S113096084179507A607B70751F4E091B100F091F9
S1130970B20009951092B0008091A80082BFFF9147
S1130980EF91BF91AF919F918F917F916F915F9103
S11309904F913F912F910F900FBE0F901F9018957C
S11309A0E0E6F0E048E850E061E070E08081982FF4
S11309B096959695969587702181222319F021307A
S11309C0C9F16BC0913091F028F09230D9F0933096
S11309D029F163C09AB39B0102C0220F331F8A9589
S11309E0E2F7822F809589238ABB57C097B39B0176
S11309F002C0220F331F8A95E2F7822F8095892344
S1130A0087BB4BC094B39B0102C0220F331F8A954E
S1130A10E2F7822F8095892384BB3FC091B39B0169
S1130A2002C0220F331F8A95E2F7822F8095892313
S1130A3081BB33C0913089F028F09230C9F09330F3
S1130A4011F12BC02AB3DB0102C0AA0FBB1F8A9588
S1130A50E2F7CD01822B8ABB20C027B3DB0102C0A1
S1130A60AA0FBB1F8A95E2F7CD01822B87BB15C065
S1130A7024B3DB0102C0AA0FBB1F8A95E2F7CD01A4
S1130A80822B84BB0AC021B3DB0102C0AA0FBB1FA7
S1130A908A95E2F7CD01822B81BB3296E417F507E4
S1130AA009F084CF0895052E97FB1EF400940E944C
S1130AB06A0557FD07D00E94720507FC03D04EF467
S1130AC00C946A0550954095309521953F4F4F4FB2
S1130AD05F4F089590958095709561957F4F8F4FE6
S1130AE09F4F0895A1E21A2EAA1BBB1BFD010DC046
S1130AF0AA1FBB1FEE1FFF1FA217B307E407F507CA
S1130B0020F0A21BB30BE40BF50B661F771F881FA5
S1130B10991F1A9469F760957095809590959B013B
S10F0B20AC01BD01CF010895F894FFCF93
S1130B2C0101020103010401050106010C010D017F
S1130B3C0E010F011A001B001C001D001A001201EB
S1130B4C0000000000000000014D003A53007374D3
S1130B5C6F702077617463680054696D65206973E4
S1090B6C204F76657200C3
S9030000FC
